:1000000012C021C020C01FC01EC01DC01CC01BC00C
:100010001AC019C018C017C016C015C014C013C02C
:1000200012C011C010C011241FBECFE5D4E0DEBF46
:10003000CDBF10E0A0E6B0E001C01D92A037B1072F
:10004000E1F778D0C9C0DCCFDC019C01220F331F5F
:10005000F901E859FF4F8081918101969183808356
:10006000855F91400CF465C0F901E459FF4F808130
:100070009181892B09F057C021E030E03183208342
:10008000109759F488B30090640002C0220F331F08
:100090000A94E2F7822B88BB0EC0A130B10559F457
:1000A00022B3CD010090660002C0880F991F0A9408
:1000B000E2F7282B22BBFD01EE0FFF1FEC59FF4F8B
:1000C00080819181019691838083079764F120E07C
:1000D00030E070E840E25EE46FEF109711F478BB17
:1000E00004C0A130B10509F472BBCA010197F1F750
:1000F000109711F468BB04C0A130B10509F462BBCC
:10010000CA010197F1F72F5F3F4F2A30310529F7D8
:1001100010926500109264001092670010926600C1
:1001200080E888BB82BBAA0FBB1FA859BF4F1D9296
:100130001C9208958FE787BB81BB80E888BB82BB98
:10014000B79904C080E090E07FDF14C08091600028
:100150009091610001969093610080936000855FAB
:10016000914044F010926D0010926C00109261006A
:1001700010926000879904C081E090E065DFE0CFD5
:100180008091620090916300019690936300809348
:100190006200855F9140A4F210926F0010926E0091
:1001A0001092630010926200CBCFFC01EE0FFF1F94
:1001B000DF01A05ABF4F8D919C9111970196119626
:1001C0009C938E93855F914034F0E459FF4F1182E8
:0C01D00010821D921C920895F894FFCF3D
:00000001FF
