:1000000012C019C018C017C016C015C014C013C044
:1000100012C011C010C00FC00EC00DC00CC00BC06C
:100020000AC009C008C011241FBECFE5D4E0DEBF5E
:10003000CDBF2AD062C0E4CF959A0000000082B301
:10004000807C82BB089517BA979A82B3887F82BB5F
:1000500001C0F2DFC799FDCF8FEF87BB08951F93D3
:10006000182FF1DF18BB82B38B7782BBE5DF18BA9C
:100070001F9108951F93182FE6DF18BB9798929A47
:10008000DBDF18BA1F9108950F931F9381B3846A21
:1000900081BB80E395E70197F1F781E0E0DF00EABB
:1000A0001FE0C8010197F1F782E0D9DFC80101978D
:1000B000F1F788E3D4DF85E88A95F1F78FE0CFDFA9
:1000C00081E4D8DF8EE4D6DF89E4D4DF83E5D2DFB4
:1000D00088E4D0DF80E2CEDF81E4CCDF86E5CADFD2
:1000E00081E4C8DF8EE4C6DF81E4C4DF80E2C2DFE2
:0E00F00081E2C0DF81E2BEDFFFCFF894FFCFD8
:00000001FF
